:100000000C943E000C945B000C945B000C945B0021
:100010000C945B000C945B000C945B000C945B00F4
:100020000C945B000C945B000C945B000C945B00E4
:100030000C945B000C945B000C945B000C945B00D4
:100040000C9471020C945B000C945B000C945B00AC
:100050000C945B000C945B000C945B000C945B00B4
:100060000C945B000C945B000C945B000C945B00A4
:100070000C944B020C945B000C945B0011241FBE8B
:10008000CFEFD4E0DEBFCDBF11E0A0E0B1E0E4E30C
:10009000F6E002C005900D92AE35B107D9F722E027
:1000A000AEE5B1E001C01D92A630B207E1F70E94B3
:1000B000F9010C9418030C94000087B18C7F87B968
:1000C000ECE7F0E0808180648083EAE7F0E0808103
:1000D00087608083808180688083089590917C0010
:1000E000987F982B90937C0080917C008062809315
:1000F0007C0080917A00806480937A0080917A00FD
:1001000084FFFCCF8091790008950F931F93CF93C4
:10011000DF93082F1AE0C0E0D0E0802F0E946E002D
:10012000C80FD11D1150C9F7CE016AE070E00E94DE
:10013000E002862FDF91CF911F910F910895EF92EA
:10014000FF920F931F93CF93DF931F92CDB7DEB72C
:10015000082F10E0E12CF12C08C0802F69830E9449
:100160006E00E80EF11C1F5F69811613F6CF612F38
:10017000C70170E00E94E002862F0F90DF91CF91BF
:100180001F910F91FF90EF900895ECE7F0E09081C0
:1001900021E030E001C0220F8A95EAF7922B90838C
:1001A000EAE7F0E08081806480838091780090911C
:1001B0007900089590916501E92FF0E0E659FE4F2E
:1001C00080839F5F903218F4909365010895109298
:1001D000650108958091650190E020916401821B82
:1001E000910960E270E00E94F40208959091640128
:1001F000E92FF0E0E659FE4F80819F5F903218F4BE
:10020000909364010895109264010895E091630150
:10021000F0E0E655FE4F8083809163018F5F80930D
:100220006301803210F010926301089580916301A0
:100230002091620190E0821B910960E270E00E94CF
:10024000F4020895E0916201F0E0E655FE4F8081EE
:10025000909162019F5F90936201903210F0109232
:100260006201089590916101E92FF0E0E657FE4F99
:1002700080839F5F903218F49093610108951092EB
:10028000610108958091610190E020916001821BDD
:10029000910960E270E00E94F4020895909160017B
:1002A000E92FF0E0E657FE4F80819F5F903218F40F
:1002B000909360010895109260010895E0915F01AC
:1002C000F0E0E653FE4F808380915F018F5F809363
:1002D0005F01803210F010925F01089580915F01FC
:1002E00020915E0190E0821B910960E270E00E9423
:1002F000F4020895E0915E01F0E0E653FE4F808144
:1003000090915E019F5F90935E01903210F0109289
:100310005E01089584B5806884BD84B5826084BD23
:1003200085B5836085BDEEE6F0E0808182608083E4
:100330008DE787BD08951F93CF93DF93D82FC92FE3
:10034000162F63E571E00E940F03009711F4439AA2
:1003500045C068E471E08D2F9C2F0E940F03009729
:1003600011F443983BC06EE371E08D2F9C2F0E94E7
:100370000F03009711F4429A31C063E371E08D2FAF
:100380009C2F0E940F03009711F4429827C069E246
:1003900071E08D2F9C2F0E940F03009711F4419A5A
:1003A0001DC06EE171E08D2F9C2F0E940F030097FE
:1003B00011F4419813C064E171E08D2F9C2F0E94CD
:1003C0000F03009711F4409A09C069E071E08D2F86
:1003D0009C2F0E940F03009709F44098412F50E092
:1003E00060E070E08D2F9C2FDF91CF911F910C94D6
:1003F000080387B18F6087B983E090E00E9488028C
:1004000083E090E00E94B4020E945D000E948A0195
:100410007894809166008A508093660080910402EF
:10042000909105020A97D0F31092050210920402EF
:100430002DC00E947A014091EA015091EB01609138
:10044000EC017091ED01FA01EC50FE4F80834F5F9B
:100450005F4F6F4F7F4F4093EA015093EB016093E2
:10046000EC017093ED018A3089F41092EA01109248
:10047000EB011092EC011092ED0160E184EF91E04C
:100480000E949B0180E091E00E94D4020E946E01D4
:100490008111CFCFC3CF1F920F920FB60F921124AD
:1004A0002F933F934F935F936F937F938F939F937C
:1004B000AF93BF93EF93FF938091CE000E945E01B4
:1004C000FF91EF91BF91AF919F918F917F916F912C
:1004D0005F914F913F912F910F900FBE0F901F9002
:1004E00018951F920F920FB60F9211248F939F931E
:1004F00080910402909105020196909305028093E9
:1005000004029F918F910F900FBE0F901F9018952E
:10051000E1ECF0E0208128612083208120682083A5
:10052000E2ECF0E02081266020839093C500809368
:10053000C40008959091C00095FFFCCF8093C60041
:1005400008958091C00087FFFCCF8091C600089578
:10055000CF93DF93EC0102C00E949A02899181112E
:10056000FBCFDF91CF910895E9ECF0E02081286185
:100570002083208120682083EAECF0E0208126603F
:1005800020839093CD008093CC0008959091C80073
:1005900095FFFCCF8093CE0008958091C80087FF1F
:1005A000FCCF8091CE000895CF93DF93EC0102C081
:1005B0000E94C60289918111FBCFDF91CF910895EE
:1005C000AA1BBB1B51E107C0AA1FBB1FA617B70779
:1005D00010F0A61BB70B881F991F5A95A9F7809595
:1005E0009095BC01CD01089597FB072E16F4009459
:1005F00007D077FD09D00E94E00207FC05D03EF449
:10060000909581959F4F0895709561957F4F0895BE
:10061000DC0101C06D9341505040E0F70895FB01AB
:10062000DC018D91019080190110D9F3990B089587
:04063000F894FFCF6C
:1006340035313262323536008052454C345F4F4694
:10064400460D0A0052454C345F4F4E0D0A00524588
:100654004C335F4F46460D0A0052454C335F4F4EB4
:100664000D0A0052454C325F4F46460D0A00524572
:100674004C325F4F4E0D0A0052454C315F4F464697
:0E0684000D0A0052454C315F4F4E0D0A00002A
:00000001FF
