:100000000C943E000C9450000C9450000C94500042
:100010000C9450000C9450000C9450000C94500020
:100020000C9450000C9450000C9450000C94500010
:100030000C9450000C9450000C9450000C94500000
:100040000C94FC010C9450000C9450000C94500043
:100050000C94D6010C9450000C9450000C94500059
:100060000C9450000C9450000C9450000C945000D0
:100070000C94CC010C9450000C94500011241FBE21
:10008000CFEFD4E0DEBFCDBF21E0A0E0B1E001C002
:100090001D92AC38B207E1F70E9461010C94900206
:1000A0000C940000ECE7F0E0808180648083EAE754
:1000B000F0E08081876080838081806880830895FC
:1000C00090917C00987F982B90937C0080917C008D
:1000D000806280937C0080917A00806480937A00B3
:1000E00080917A0084FFFCCF8091790008950F936E
:1000F0001F93CF93DF93082F1AE0C0E0D0E0802F4A
:100100000E946000C80FD11D1150C9F7CE016AE0EE
:1001100070E00E946802862FDF91CF911F910F91AE
:100120000895EF92FF920F931F93CF93DF931F9247
:10013000CDB7DEB7082F10E0E12CF12C08C0802FDE
:1001400069830E946000E80EF11C1F5F698116132D
:10015000F6CF612FC70170E00E946802862F0F90D2
:10016000DF91CF911F910F91FF90EF900895ECE7F1
:10017000F0E0908121E030E001C0220F8A95EAF79B
:10018000922B9083EAE7F0E0808180648083809105
:10019000780090917900089590910301E92FF0E0A3
:1001A000EC5BFE4F80839F5F903418F490930301C3
:1001B00008951092030108958091030190E0209129
:1001C0000201821B910960E470E00E947C020895A4
:1001D00090910201E92FF0E0EC5BFE4F80819F5F80
:1001E000903418F49093020108951092020108953A
:1001F00090910101E92FF0E0EC5FFE4F80839F5F5B
:10020000903418F49093010108951092010108951B
:100210008091010190E020910001821B910960E42E
:1002200070E00E947C02089590910001E92FF0E0B7
:10023000EC5FFE4F80819F5F903418F49093000133
:10024000089510920001089580918801882339F063
:1002500088B198E0892788B9109288010895809123
:100260008B01882339F088B194E0892788B91092EE
:100270008B01089580918501882339F088B192E03F
:10028000892788B910928501089580918401882377
:1002900031F088B191E0892788B9109284010895DE
:1002A00084B5806884BD84B5826084BD85B5836073
:1002B00085BDEEE6F0E08081826080838DE787BDBA
:1002C000089587B18F6087B983E390E00E941002A0
:1002D00083E390E00E943C020E9452000E94500181
:1002E0007894C4E0D2E011E008E0809188018111A7
:1002F000109288018091890190918A01892B41F4A3
:100300008091860190918701883E934070F32CC0C4
:1003100010928A0110928901809186019091870143
:100320000196909387018093860119C00E94140161
:10033000823061F018F4813091F405C0833049F0C7
:10034000843069F409C088B1802708C088B18C273F
:1003500005C088B18D2702C088B1812788B90E9465
:1003600008018111E3CFCCCF109287011092860152
:1003700081E00E9460000E94CC0080E00E9460004A
:100380000E94CC0004C00E94E8000E9422020E9449
:10039000DC008111F8CFA9CF1F920F920FB60F92F8
:1003A00011240F900FBE0F901F9018951F920F925F
:1003B0000FB60F9211242F933F934F935F936F9338
:1003C0007F938F939F93AF93BF93EF93FF9380910E
:1003D000C6000E94F800FF91EF91BF91AF919F91ED
:1003E0008F917F916F915F914F913F912F910F90DE
:1003F0000FBE0F901F9018951F920F920FB60F927D
:1004000011248F939F9381E090E090938A018093D1
:1004100089019F918F910F900FBE0F901F9018959B
:10042000E1ECF0E020812861208320812068208396
:10043000E2ECF0E02081266020839093C500809359
:10044000C40008959091C00095FFFCCF8093C60032
:1004500008958091C00087FFFCCF8091C600089569
:10046000CF93DF93EC0102C00E9422028991811197
:10047000FBCFDF91CF910895E9ECF0E02081286176
:100480002083208120682083EAECF0E02081266030
:1004900020839093CD008093CC0008959091C80064
:1004A00095FFFCCF8093CE0008958091C80087FF10
:1004B000FCCF8091CE000895CF93DF93EC0102C072
:1004C0000E944E0289918111FBCFDF91CF91089557
:1004D000AA1BBB1B51E107C0AA1FBB1FA617B7076A
:1004E00010F0A61BB70B881F991F5A95A9F7809586
:1004F0009095BC01CD01089597FB072E16F400944A
:1005000007D077FD09D00E94680207FC05D03EF4B1
:10051000909581959F4F0895709561957F4F0895AF
:04052000F894FFCF7D
:00000001FF
