:100000000C943E000C9450000C9450000C94500042
:100010000C9450000C9450000C9450000C94500020
:100020000C9450000C9450000C9450000C94500010
:100030000C9450000C9450000C9450000C94500000
:100040000C9450000C9450000C9450000C945000F0
:100050000C9499010C9450000C9450000C94500096
:100060000C9450000C9450000C9450000C945000D0
:100070000C948F010C9450000C94500011241FBE5E
:10008000CFEFD4E0DEBFCDBF21E0A0E0B1E001C002
:100090001D92A838B207E1F70E9450010C943F026C
:1000A0000C940000ECE7F0E0808180648083EAE754
:1000B000F0E08081876080838081806880830895FC
:1000C00090917C00987F982B90937C0080917C008D
:1000D000806280937C0080917A00806480937A00B3
:1000E00080917A0084FFFCCF8091790008950F936E
:1000F0001F93CF93DF93082F1AE0C0E0D0E0802F4A
:100100000E946000C80FD11D1150C9F7CE016AE0EE
:1001100070E00E941702862FDF91CF911F910F91FF
:100120000895EF92FF920F931F93CF93DF931F9247
:10013000CDB7DEB7082F10E0E12CF12C08C0802FDE
:1001400069830E946000E80EF11C1F5F698116132D
:10015000F6CF612FC70170E00E941702862F0F9023
:10016000DF91CF911F910F91FF90EF900895ECE7F1
:10017000F0E0908121E030E001C0220F8A95EAF79B
:10018000922B9083EAE7F0E0808180648083809105
:10019000780090917900089590910301E92FF0E0A3
:1001A000EC5BFE4F80839F5F903418F490930301C3
:1001B00008951092030108958091030190E0209129
:1001C0000201821B910960E470E00E942B020895F5
:1001D00090910201E92FF0E0EC5BFE4F80819F5F80
:1001E000903418F49093020108951092020108953A
:1001F00090910101E92FF0E0EC5FFE4F80839F5F5B
:10020000903418F49093010108951092010108951B
:100210008091010190E020910001821B910960E42E
:1002200070E00E942B02089590910001E92FF0E008
:10023000EC5FFE4F80819F5F903418F49093000133
:10024000089510920001089580918601882339F065
:1002500088B198E0892788B9109286010895809125
:100260008701882339F088B194E0892788B91092F2
:100270008701089580918501882339F088B192E043
:10028000892788B910928501089580918401882377
:1002900031F088B191E0892788B9109284010895DE
:1002A00087B18F6087B983E390E00E94BF0183E349
:1002B00090E00E94EB010E9452007894C8E0809187
:1002C000860181111092860181E00E9460000E94E7
:1002D000CC0080E00E9460000E94CC0004C00E941C
:1002E000E8000E94D1010E94DC008111F8CF0E9439
:1002F00024012FEF89E698E1215080409040E1F7FA
:1003000000C0000007C00E941401813019F488B1B8
:100310008C2788B90E9408018111F5CFD0CF1F9298
:100320000F920FB60F9211240F900FBE0F901F90D7
:1003300018951F920F920FB60F9211242F933F938F
:100340004F935F936F937F938F939F93AF93BF93DD
:10035000EF93FF938091C6000E94F800FF91EF9108
:10036000BF91AF919F918F917F916F915F914F91CD
:100370003F912F910F900FBE0F901F901895E1ECB9
:10038000F0E0208128612083208120682083E2EC36
:10039000F0E02081266020839093C5008093C40004
:1003A00008959091C00095FFFCCF8093C6000895FA
:1003B0008091C00087FFFCCF8091C6000895CF9345
:1003C000DF93EC0102C00E94D10189918111FBCF22
:1003D000DF91CF910895E9ECF0E02081286120833E
:1003E000208120682083EAECF0E0208126602083D1
:1003F0009093CD008093CC0008959091C80095FF14
:10040000FCCF8093CE0008958091C80087FFFCCF79
:100410008091CE000895CF93DF93EC0102C00E943B
:10042000FD0189918111FBCFDF91CF910895AA1B26
:10043000BB1B51E107C0AA1FBB1FA617B70710F0CF
:10044000A61BB70B881F991F5A95A9F78095909501
:10045000BC01CD01089597FB072E16F4009407D038
:1004600077FD09D00E94170207FC05D03EF4909555
:1004700081959F4F0895709561957F4F0895F894E9
:02048000FFCFAC
:00000001FF
