:100000000C943E000C945B000C945B000C945B0021
:100010000C945B000C945B000C945B000C945B00F4
:100020000C945B000C945B000C945B000C945B00E4
:100030000C945B000C945B000C945B000C945B00D4
:100040000C945B000C945B000C945B000C945B00C4
:100050000C9471010C945B000C945B000C945B009D
:100060000C945B000C945B000C945B000C945B00A4
:100070000C944B010C945B000C945B0011241FBE8C
:10008000CFEFD4E0DEBFCDBF11E0A0E0B1E0EEE6FF
:10009000F4E002C005900D92A832B107D9F722E032
:1000A000A8E2B1E001C01D92A03BB207E1F70E94B7
:1000B00027010C9435020C940000ECE7F0E08081FD
:1000C00080648083EAE7F0E08081886080838081BB
:1000D000876080838081806880830895EAE7F0E00C
:1000E00080818064808380E008951F93CF93DF93A5
:1000F0001AE0C0E0D0E00E946E00C80FD11D115080
:10010000D1F7CE016AE070E00E940D02862FDF91E8
:10011000CF911F9108950F931F93CF93DF93082FD3
:1001200010E0C0E0D0E005C00E946E00C80FD11DF5
:100130001F5F1013F9CF612FCE0170E00E940D02F6
:10014000862FDF91CF911F910F910895EAE7F0E09C
:1001500080818064808380E0089590912B01E92F55
:10016000F0E0E15DFD4F80839F5F97FD03C09093BA
:100170002B01089510922B01089580912B0190E09E
:1001800020912A01821B910960E870E00E942102FF
:10019000089590912A01E92FF0E0E15DFD4F808103
:1001A0009F5F97FD03C090932A01089510922A0142
:1001B000089590912901E92FF0E0E25DFE4F8083E0
:1001C0009F5F9093290108958091290190E02091EB
:1001D0002801821B910960E071E00E9421020895CC
:1001E00090912801E92FF0E0E25DFE4F80819F5F52
:1001F00090932801089580912E02882339F088B1C8
:1002000098E0892788B910922E0208958091AF0254
:10021000882339F088B194E0892788B91092AF0219
:10022000089580912D01882339F088B192E08927C3
:1002300088B910922D01089580912C01882331F006
:1002400088B191E0892788B910922C01089587B16F
:100250008F6087B983E390E00E94B50183E390E06B
:100260000E94E101789480912E02811110922E0259
:100270000E94BD00882321F00E94C9000E94C7018E
:100280000E94E400882321F00E94F0000E94F30104
:100290000E94FB00E8CF1F920F920FB60F9211241D
:1002A0002F933F934F935F936F937F938F939F937E
:1002B000AF93BF93EF93FF938091CE000E94AD0068
:1002C000FF91EF91BF91AF919F918F917F916F912E
:1002D0005F914F913F912F910F900FBE0F901F9004
:1002E00018951F920F920FB60F9211242F933F93E0
:1002F0004F935F936F937F938F939F93AF93BF932E
:10030000EF93FF938091C600813019F480932E0201
:1003100017C08091C600823021F481E08093AF0243
:100320000FC08091C600833021F481E080932D01BD
:1003300007C08091C600843019F481E080932C01BD
:100340008091C6000E94D900FF91EF91BF91AF91BB
:100350009F918F917F916F915F914F913F912F91DD
:100360000F900FBE0F901F901895E1ECF0E02081E8
:1003700028612083208120682083E2ECF0E0208146
:10038000266020839093C5008093C40008959091C7
:10039000C00095FFFCCF8093C60008958091C000F7
:1003A00087FFFCCF8091C6000895CF93DF93EC01C7
:1003B00002C00E94C70189918111FBCFDF91CF91CB
:1003C0000895E9ECF0E020812861208320812068F5
:1003D0002083EAECF0E02081266020839093CD001A
:1003E0008093CC0008959091C80095FFFCCF809336
:1003F000CE0008958091C80087FFFCCF8091CE0089
:100400000895CF93DF93EC0102C00E94F30189911C
:100410008111FBCFDF91CF910895AA1BBB1B51E146
:1004200007C0AA1FBB1FA617B70710F0A61BB70B64
:10043000881F991F5A95A9F780959095BC01CD0109
:10044000089597FB072E16F4009407D077FD09D086
:100450000E940D0207FC05D03EF4909581959F4FB8
:0E0460000895709561957F4F0895F894FFCF31
:10046E0041542B43575341503D70727A656B617AFC
:10047E006E696B692C70617373776F72642C312C9B
:08048E00320000000000000034
:00000001FF
