:100000000C943E000C945B000C945B000C945B0021
:100010000C945B000C945B000C945B000C945B00F4
:100020000C945B000C945B000C945B000C945B00E4
:100030000C945B000C945B000C945B000C945B00D4
:100040000C94AD020C945B000C945B000C945B0070
:100050000C9487020C945B000C945B000C945B0086
:100060000C945B000C945B000C945B000C945B00A4
:100070000C9461020C945B000C945B0011241FBE75
:10008000CFEFD4E0DEBFCDBF11E0A0E0B1E0E8E902
:10009000F6E002C005900D92AC33B107D9F722E02B
:1000A000ACE3B1E001C01D92A63DB207E1F70E94AA
:1000B000C4010C944A030C940000ECE7F0E080814A
:1000C00080648083EAE7F0E08081876080838081BC
:1000D00080688083089590917C00987F982B9093FE
:1000E0007C0080917C00806280937C0080917A000B
:1000F000806480937A0080917A0084FFFCCF8091A5
:10010000790008950F931F93CF93DF93082F1AE080
:10011000C0E0D0E0802F0E946B00C80FD11D1150AD
:10012000C9F7CE016AE070E00E941903862FDF91C3
:10013000CF911F910F910895EF92FF920F931F930C
:10014000CF93DF931F92CDB7DEB7082F10E0E12CDD
:10015000F12C08C0802F69830E946B00E80EF11C0F
:100160001F5F69811613F6CF612FC70170E00E94EF
:100170001903862F0F90DF91CF911F910F91FF9060
:10018000EF900895ECE7F0E0908121E030E001C0CD
:10019000220F8A95EAF7922B9083EAE7F0E08081BC
:1001A0008064808380917800909179000895909187
:1001B0004301E92FF0E0EB5BFE4F80839F5F9034BB
:1001C00018F490934301089510924301089580918B
:1001D000430190E020914201821B910960E470E0AC
:1001E0000E942D03089590914201E92FF0E0EB5B0E
:1001F000FE4F80819F5F903418F4909342010895E0
:1002000010924201089590914101E92FF0E0EB53E3
:10021000FE4F80839F5F903418F4909341010895BE
:100220001092410108958091410190E02091400198
:10023000821B910960E470E00E942D030895909163
:100240004001E92FF0E0EB53FE4F80819F5F903437
:1002500018F49093400108951092400108959091F0
:100260003F01E92FF0E0EB57FE4F80839F5F903412
:1002700018F490933F01089510923F0108958091E2
:100280003F0190E020913E01821B910960E470E003
:100290000E942D03089590913E01E92FF0E0EB5765
:1002A000FE4F80819F5F903418F490933E01089533
:1002B00010923E01089590913D01E92FF0E0EB5F2F
:1002C000FD4F80839F5F903418F490933D01089513
:1002D00010923D01089580913D0190E020913C01F4
:1002E000821B910960E470E00E942D0308959091B3
:1002F0003C01E92FF0E0EB5FFD4F80819F5F903480
:1003000018F490933C01089510923C010895809157
:100310004A02882339F088B198E0892788B9109279
:100320004A0208958091D502882339F088B194E07B
:10033000892788B91092D5020895809147028823B1
:1003400039F088B192E0892788B910924702089560
:1003500080914502882331F088B191E0892788B9DE
:1003600010924502089584B5806884BD84B582608A
:1003700084BD85B5836085BDEEE6F0E08081826056
:1003800080838DE787BD089587B18F6087B983E348
:1003900090E00E94C10283E390E00E94ED020E947F
:1003A0005D000E94B301789416C00E947701E0912D
:1003B0004401F0E0ED5AFD4F8A3049F080830E94FD
:1003C000D302809144018F5F8093440104C0108266
:1003D0001092440104C00E946B018111E6CF80910C
:1003E000D3029091D402892B09F45CC01092D402FC
:1003F0001092D30280914802909149020196909305
:1004000049028093480265E371E083E592E00E942F
:100410004103009711F4439A45C06DE271E083E512
:1004200092E00E944103009711F443983BC066E2BA
:1004300071E083E592E00E944103009711F4429A33
:1004400031C06EE171E083E592E00E9441030097C4
:1004500011F4429827C067E171E083E592E00E94C1
:100460004103009711F4419A1DC06FE071E083E5EC
:1004700092E00E944103009711F4419813C068E094
:1004800071E083E592E00E944103009711F4409AE5
:1004900009C060E071E083E592E00E9441030097AB
:1004A00009F440988091480290914902883E934017
:1004B00008F491CF1092490210924802109246021D
:1004C0008ACF1F920F920FB60F9211242F933F9352
:1004D0004F935F936F937F938F939F93AF93BF934C
:1004E000EF93FF938091CE000E945B01FF91EF910B
:1004F000BF91AF919F918F917F916F915F914F913C
:100500003F912F910F900FBE0F901F9018951F9243
:100510000F920FB60F9211242F933F934F935F9337
:100520006F937F938F939F93AF93BF93EF93FF93BB
:100530008091C6000E940301FF91EF91BF91AF919E
:100540009F918F917F916F915F914F913F912F91EB
:100550000F900FBE0F901F9018951F920F920FB61D
:100560000F9211248F939F9381E090E09093D40297
:100570008093D3029F918F910F900FBE0F901F9089
:100580001895E1ECF0E0208128612083208120682B
:100590002083E2ECF0E02081266020839093C50068
:1005A0008093C40008959091C00095FFFCCF809384
:1005B000C60008958091C00087FFFCCF8091C600DF
:1005C0000895CF93DF93EC0102C00E94D30289917A
:1005D0008111FBCFDF91CF910895E9ECF0E020810C
:1005E00028612083208120682083EAECF0E02081CC
:1005F000266020839093CD008093CC000895909145
:10060000C80095FFFCCF8093CE0008958091C8006C
:1006100087FFFCCF8091CE000895CF93DF93EC014C
:1006200002C00E94FF0289918111FBCFDF91CF911F
:100630000895AA1BBB1B51E107C0AA1FBB1FA61729
:10064000B70710F0A61BB70B881F991F5A95A9F77B
:1006500080959095BC01CD01089597FB072E16F467
:10066000009407D077FD09D00E94190307FC05D03C
:100670003EF4909581959F4F0895709561957F4FB9
:100680000895FB01DC018D91019080190110D9F3CF
:08069000990B0895F894FFCFC7
:1006980052454C4F4646340052454C4F4E3400525A
:1006A800454C4F4646330052454C4F4E3300524559
:1006B8004C4F4646320052454C4F4E320052454C44
:0C06C8004F4646310052454C4F4E310069
:00000001FF
