:100000000C943E000C945B000C945B000C945B0021
:100010000C945B000C945B000C945B000C945B00F4
:100020000C945B000C945B000C945B000C945B00E4
:100030000C945B000C945B000C945B000C945B00D4
:100040000C94AC020C945B000C945B000C945B0071
:100050000C945B000C945B000C945B000C945B00B4
:100060000C945B000C945B000C945B000C945B00A4
:100070000C9486020C945B000C945B0011241FBE50
:10008000CFEFD4E0DEBFCDBF11E0A0E0B1E0ECE403
:10009000F7E002C005900D92AC36B107D9F722E027
:1000A000ACE6B1E001C01D92AE31B207E1F70E94AB
:1000B00013020C94A4030C94000081B18C7F81B9CD
:1000C000ECE7F0E0808180648083EAE7F0E0808103
:1000D00087608083808180688083089590917C0010
:1000E000987F982B90937C0080917A008064809315
:1000F0007A0080917A0084FFFCCF209178003091C3
:100100007900C90108950F931F93CF93DF93082FB0
:100110001AE0C0E0D0E0802F0E946E00C80FD91F07
:100120001150C9F7CE016AE070E00E943003CB01A4
:10013000DF91CF911F910F910895EF92FF920F934E
:100140001F93CF93DF931F92CDB7DEB7082F10E038
:10015000E12CF12C08C0802F69830E946E00E80E0C
:10016000F91E1F5F69811613F6CF612FC70170E07A
:100170000E943003CB010F90DF91CF911F910F911F
:10018000FF90EF90089590917C0021E030E001C055
:10019000220F8A95EAF7922B90937C0080917A0047
:1001A000806480937A0080917A0084FFFCCF209154
:1001B000780030917900C901089590917301E92F79
:1001C000F0E0EC58FE4F80839F5F903218F49093DC
:1001D000730108951092730108958091730190E066
:1001E00020917201821B910960E270E00E94440339
:1001F000089590917201E92FF0E0EC58FE4F808154
:100200009F5F903218F490937201089510927201DA
:100210000895E0917101F0E0EC54FE4F80838091ED
:1002200071018F5F80937101803210F01092710123
:100230000895809171012091700190E0821B9109D5
:1002400060E270E00E9444030895E0917001F0E0E4
:10025000EC54FE4F8081909170019F5F90937001EC
:10026000903210F010927001089590916F01E92F73
:10027000F0E0EC56FE4F80839F5F903218F490932D
:100280006F01089510926F01089580916F0190E0C1
:1002900020916E01821B910960E270E00E9444038C
:1002A000089590916E01E92FF0E0EC56FE4F8081A9
:1002B0009F5F903218F490936E01089510926E0132
:1002C0000895E0916D01F0E0EC52FE4F8083809143
:1002D0006D018F5F80936D01803210F010926D017F
:1002E000089580916D0120916C0190E0821B91092D
:1002F00060E270E00E9444030895E0916C01F0E038
:10030000EC52FE4F808190916C019F5F90936C0145
:10031000903210F010926C01089584B5806884BD0D
:1003200084B5826084BD85B5836085BDEEE6F0E06E
:100330008081826080838DE787BD08951F93CF936E
:10034000DF93D82FC92F162F6FE571E00E946A0343
:10035000009711F4439A5CC064E571E08D2F9C2FE7
:100360000E946A03009711F4439852C06AE471E056
:100370008D2F9C2F0E946A03009711F4429A48C067
:100380006FE371E08D2F9C2F0E946A03009711F498
:1003900042983EC065E371E08D2F9C2F0E946A0356
:1003A000009711F4419A34C06AE271E08D2F9C2FBE
:1003B0000E946A03009711F441982AC060E271E03C
:1003C0008D2F9C2F0E946A03009711F4409A20C041
:1003D00065E171E08D2F9C2F0E946A03009711F454
:1003E000409816C06CE071E08D2F9C2F0E946A032C
:1003F000009719F488B18F600AC062E071E08D2F18
:100400009C2F0E946A03009719F488B1807F88B9F5
:10041000412F50E060E070E08D2F9C2FDF91CF9155
:100420001F910C94580387B18F6087B988B1807F82
:1004300088B983E090E00E94D80283E090E00E94B7
:1004400004030E945D000E948D01789480916600F3
:100450008A508093660080911D028A3028F4809132
:1004600006028823C1F31DC010921D0215C00E9410
:100470007D019091F401E92FF0E0E35FFD4F80836F
:100480009F5F9093F4018A3039F41092F40160E197
:100490008DE092E00E949E010E9471018111E7CFE0
:1004A000DECF1092060281E00E948300909301014A
:1004B0008093000180910001909101014AE050E099
:1004C00066EF71E00E94730369E671E086EF91E0E8
:1004D0000E945F0380E00E9483009093010180935B
:1004E000000180910001909101014AE050E069E033
:1004F00072E00E94730369E072E086EF91E00E946F
:100500005F0386EF91E00E942403A5CF1F920F9214
:100510000FB60F9211242F933F934F935F936F93D6
:100520007F938F939F93AF93BF93EF93FF938091AC
:10053000CE000E946101FF91EF91BF91AF919F9119
:100540008F917F916F915F914F913F912F910F907C
:100550000FBE0F901F9018951F920F920FB60F921B
:1005600011242F933F938F939F9380911D028F5F50
:1005700080931D0280910702909108029C012F5FD9
:100580003F4F30930802209307028031974238F0A2
:10059000109208021092070281E0809306029F9158
:1005A0008F913F912F910F900FBE0F901F90189534
:1005B000E1ECF0E020812861208320812068208305
:1005C000E2ECF0E02081266020839093C5008093C8
:1005D000C40008959091C00095FFFCCF8093C600A1
:1005E00008958091C00087FFFCCF8091C6000895D8
:1005F000CF93DF93EC0102C00E94EA02899181113E
:10060000FBCFDF91CF910895E9ECF0E020812861E4
:100610002083208120682083EAECF0E0208126609E
:1006200020839093CD008093CC0008959091C800D2
:1006300095FFFCCF8093CE0008958091C80087FF7E
:10064000FCCF8091CE000895CF93DF93EC0102C0E0
:100650000E94160389918111FBCFDF91CF910895FC
:10066000AA1BBB1B51E107C0AA1FBB1FA617B707D8
:1006700010F0A61BB70B881F991F5A95A9F78095F4
:100680009095BC01CD01089597FB072E16F40094B8
:1006900007D077FD09D00E94300307FC05D03EF457
:1006A000909581959F4F0895709561957F4F08951E
:1006B000DC0101C06D9341505040E0F70895FB010B
:1006C000DC010D900020E9F7119701900D920020B8
:1006D000E1F70895FB01DC018D9101908019011073
:1006E000D9F3990B0895FB019F01E8944230C4F0BF
:1006F0004532B4F44A3029F497FB1EF49095819565
:100700009F4F642F77270E943003805D8A330CF05F
:10071000895D8193CB010097A1F716F45DE25193B7
:100720001082C9010C949403DC01FC01672F7191C4
:100730007723E1F7329704C07C916D9370836291C7
:0C074000AE17BF07C8F30895F894FFCF70
:10074C00800052454C5F4F46460D0A0052454C5FA7
:10075C004F4E0D0A0052454C345F4F46460D0A0071
:10076C0052454C345F4F4E0D0A0052454C335F4F8F
:10077C0046460D0A0052454C335F4F4E0D0A00524F
:10078C00454C325F4F46460D0A0052454C325F4F86
:10079C004E0D0A0052454C315F4F46460D0A005231
:0C07AC00454C315F4F4E0D0A006200000A
:00000001FF
